:020000040800F2
:1000000008070020AD010008B32D0008112A0008E0
:10001000B12D0008F9070008853500080000000030
:10002000000000000000000000000000B72D0008E4
:100030009308000800000000B52D0008B92D000845
:10004000C7010008C7010008C7010008C701000870
:10005000C7010008C7010008C7010008C701000860
:10006000C7010008C7010008C7010008FD07000814
:10007000C7010008C70100080908000815080008A2
:10008000C7010008C7010008C7010008C701000830
:10009000C7010008C7010008C7010008C701000820
:1000A000C7010008C7010008C7010008C701000810
:1000B000C7010008C7010008C7010008C701000800
:1000C000C7010008C7010008C7010008C7010008F0
:1000D000C701000879350008C7010008C7010008FA
:1000E000C7010008C7010008C7010008C7010008D0
:1000F000C7010008C7010008C7010008C7010008C0
:10010000C70100080000000000000000C70100084F
:10011000C7010008C7010008C7010008C70100089F
:1001200021080008C7010008C7010008C70100082E
:10013000C7010008C701000800000000000000001F
:10014000C7010008C7010008C7010008000000003F
:10015000000000000000000000000000000000009F
:10016000C7010008C7010008C7010008C70100084F
:10017000C7010008C7010008C7010008C70100083F
:10018000C7010008C70100080000000000000000CF
:10019000C7010008DFF810D000F080FA00480047DF
:1001A00041380008AFF30080080700200648804768
:1001B00006480047FEE7FEE7FEE7FEE7FEE7FEE74C
:1001C000FEE7FEE7FEE7FEE7412E00089501000886
:1001D0002DE9F05F0546002092469B46884606467C
:1001E000814640241BE0284641464746224600F00F
:1001F00020F853465A46C01A914110D3114618466A
:10020000224600F096F92D1A67EB01084F46224668
:100210000120002100F08DF917EB00094E41201E4E
:10022000A4F10104DFDC484631462A464346BDE8D6
:10023000F09F202A04DB203A21FA02F000217047C7
:1002400021FA02F3D040C2F120029140084319463E
:100250007047D2B201E000F8012B491EFBD2704773
:100260000022F6E710B513460A4604461946FFF782
:10027000F0FF204610BD2DE9FE4F804681EA0300C5
:10028000C00F0C46009021F0004123F00045B8EB70
:100290000200A94105D24046214690461C460B4625
:1002A000024623F00040104347D0270DC7F30A0051
:1002B000C3F30A510290401A019040286BDAC3F34D
:1002C000130040F4801B0098924620B10023D2EB2B
:1002D000030A63EB0B0B01985946C0F140025046EC
:1002E00000F027F906460D4650465946019A00F09F
:1002F0002FF910EB08006141002487EA115284EACB
:10030000E7731A4340D0009A62B3019A012A4FEA78
:10031000075215DC001B61EB02014FF0004202EABC
:100320000752CDE90042001C41F5801132462B46B0
:1003300000F066F903B0BDE8F08F40462146F9E7CA
:10034000001B61EB0201001C41F5801300185B41AA
:100350002018A2F5001747EB030140EAD570B61943
:100360006D4111E06D084FEA360645EAC0754FEA67
:100370000752001B61EB0201001C41F58011490886
:100380004FEA30000019514132462B4603B0BDE818
:10039000F04F00F026B90098012240000023D0EB76
:1003A000020263EBE073009821464FEAE074B8EB79
:1003B000000061EB0401E9E783F000435BE781F0B3
:1003C000004158E72DE9FE4F81EA030404F00044A0
:1003D00021F0004100944FF0000B23F0004350EA5D
:1003E00001045ED052EA03045BD0C3F30A54C1F3A4
:1003F0000A552C44A4F2F3340194A0FB0254C1F337
:10040000130141F48011C3F3130343F4801301FB80
:10041000024400FB034E840A970A44EA815447EAE7
:100420008357A4FB076802958D0A05FB07854FEAF1
:10043000932C04FB0C542705029D4FEA065847EA0B
:100440001637B5EB08056EEB070C870E920E47EAE0
:10045000811742EA8312A7FB0201B6EB0B0164EBA2
:1004600000042B0D43EA0C335E1844EB1C50DA46B3
:100470005146E7FB0201C5F313044FEA0B3343EA8D
:1004800014534FEA0432019C43EA0603A4F10C041E
:100490000294009CCDE900B400F0B2F803B0BDE8CE
:1004A000F08F00200146F9E700F0004230F00040F4
:1004B0000AD0C10D01F56071C0F3160042EA015186
:1004C000C20840071143704700200146704701F001
:1004D000004330B421F0004150EA010206D00A0D79
:1004E000A2F56072C1F31301002A02DC30BC0020C7
:1004F0007047440F44EAC104C100E01830BC00EB6F
:10050000C25000F037B830B50B460146002020221B
:10051000012409E021FA02F59D4205D303FA02F510
:10052000491B04FA02F52844151EA2F10102F1DC70
:1005300030BD202A04DB203A00FA02F10020704787
:100540009140C2F1200320FA03F319439040704711
:10055000202A06DBCB17203A41FA02F043EAE07387
:1005600006E041FA02F3D040C2F120029140084374
:10057000194670470029A8BF7047401C490008BFB2
:1005800020F00100704710B4B0FA80FC00FA0CF0C3
:1005900050EA010404BF10BC704749B1CCF12004FB
:1005A00021FA04F411FA0CF118BF01212143084388
:1005B000A3EB0C01CB1D4FEA00614FEA102042BFB4
:1005C000002010BC704700EBC35010440029A4BFAA
:1005D00010BC7047401C490008BF20F0010010BC4F
:1005E000704710B5141E73F1000408DA401C41F185
:1005F000000192185B411A4301D120F0010010BDA7
:100600002DE9F04D92469B4611B1B1FA81F202E01C
:10061000B0FA80F220329046FFF78BFF04460F4677
:1006200040EA0A0041EA0B0153465A46084313D0F8
:10063000114653EA010019D0C8F140025046FFF7B5
:10064000F8FD05460E46504659464246FFF771FFF3
:10065000084305D0012004E020463946BDE8F08D6E
:100660000020054346EAE0762C4337430A986305A9
:10067000E40AA0EB08000022FD0A44EA47540A30CD
:1006800002D500200146E9E7010510196941DDE9BD
:10069000084500196941BDE8F04DA2E7064C074D39
:1006A00006E0E06840F0010394E807009847103442
:1006B000AC42F6D3FFF772FD2C3C00084C3C00081E
:1006C0000146406A026C12F0500F03D0806B026B3F
:1006D00008461047016C41F4007101640168C96863
:1006E00011F4406F0CD1417E51B9016C21F480713D
:1006F0000164016CC90403D4016C41F0010101647F
:1007000000F020BB406A016C41F040010164416C83
:1007100041F00401416400F017BB406A00F013BBD4
:1007200070B504460068816801F0030101292AD1EF
:100730000168C90727D0816801F00D01012914D192
:10074000816841F00201816021680320086000F0A7
:100750009DFF054613E000BF00F098FF401B0228F4
:100760000DD920688068C00709D0206C40F01000C7
:100770002064606C40F001006064012070BD20685E
:100780008068C007E8D1002070BD000070B5044645
:100790000068816801F00301012902D10168C907DD
:1007A00025D18168134A114212D1816841F00101BB
:1007B000816000F06BFF054614E000BF00F066FFAB
:1007C000401B02280ED920680068C043C00709D02A
:1007D000206C40F010002064606C40F00100606408
:1007E000012070BD20680068C043C007E6D100202A
:1007F00070BD00003F000080FEE70000014800F0EF
:1008000051BD0000DC000020014800F04BBD00009D
:10081000C4020020014800F045BD00008002002015
:10082000014800F03FBD0000200100200B4B016893
:100830001422994207D20A4B1944B1FBF2F1890004
:100840000164084908E0054B5B421944B1FBF2F131
:100850008900016401490839C163704708040240F6
:10086000F8FFFDBF0000024030B590F84050012471
:10087000AC40C56B6C60046863604368102B036810
:1008800003D099600068C26030BD9A600068C160A2
:1008900030BD704772B6FEE7F0B5002302684FF036
:1008A000A04C3E4C94B01F46624501D100940DE02F
:1008B000A24202D1CDF800C008E0394D394EAA421B
:1008C00001D1009602E0B24214D1009590F83C505C
:1008D000012D12D0012580F83C5095686D0753D446
:1008E000009DAD686D074FD4624501D0A24206D18C
:1008F0002D4A05E0012014B0F0BD0220FBE72B4A91
:100900000D6840F61F7425B3956890F8306025F4A3
:10091000604545EA46354E68354395600568AE68E2
:1009200006F00306012E02D12D68ED0731D1009D9E
:10093000AD6805F00305012D03D1009D2D68ED077D
:1009400027D10D6889680D439168A1430D439560D7
:100950001FE0916821F46041916001688D6805F0A5
:100960000305012D02D10968C90712D100998968D0
:1009700001F00301012903D100990968C90708D1D1
:100980009168A143916004E0016C41F02001016491
:10099000012380F83C701846ADE7000000010050CC
:1009A00000040050000500500003005000070050F4
:1009B000F0B594B00024009490F83C202546012A1C
:1009C00019D0012780F83C7003689A6852077CD4DC
:1009D0004A681F26052A11D2D3F830C002EB420222
:1009E000520096402CEA060C0E6896404CEA060C23
:1009F000C3F830C035E0022014B0F0BD0A2A0FD28F
:100A0000D3F834C0521F02EB4202520096402CEA47
:100A1000060C0E6896404CEA060CC3F834C020E081
:100A20000F2A0FD2D3F838C00A3A02EB4202520022
:100A300096402CEA060C0E6896404CEA060CC3F869
:100A400038C00EE0D3F83CC00F3A02EB420252002D
:100A500096402CEA060C0E6896404CEA060CC3F849
:100A60003CC00268936813F00C0F4FF0070374D179
:100A7000D1F800E0BEF10A0F10D39669AEF10A0E6C
:100A80000EEB4E0C03FA0CFE26EA0E06D1F808E037
:100A90000EFA0CFE46EA0E0696610FE0D2F814C07C
:100AA0000EEB4E0603FA06FE2CEA0E0CD1F808E017
:100AB0000EFA06FE4CEA0E0CC2F814C002684E692B
:100AC000D2F80CC0CCF3C10C00E0FDE04FEA4C0CB6
:100AD00006FA0CF6D1F810E0DFF848C2BEF1010FBB
:100AE00042D0BEF1020F4DD0BEF1030F58D0BEF17F
:100AF000040F63D0166E91F800C006F0F846B6EB0E
:100B00008C6F03D1166E26F0004616660268566E8C
:100B100091F800C006F0F846B6EB8C6F03D1566E24
:100B200026F0004656660268966E91F800C006F000
:100B3000F846B6EB8C6F03D1966E26F000469666AB
:100B40000268D66E91F800C006F0F846B6EB8C6FDE
:100B500003D1D66E26F00046D6660268966806F087
:100B60000306012E3AD136E0D2F860E00EEA0C0E10
:100B700091F800C046EA8C664EEA060E4EF000463A
:100B80001666EAE7D2F864E00EEA0C0E91F800C0AF
:100B900046EA8C664EEA060E4EF000465666DCE7E4
:100BA000D2F868E00EEA0C0E91F800C046EA8C66B6
:100BB0004EEA060E4EF000469666CEE7D2F86CE09E
:100BC0000EEA0C0E91F800C046EA8C664EEA060E5C
:100BD0004EF00046C0E71668F6077AD1CE68012EBF
:100BE00006D052F8B03F0E78B740BB43136021E007
:100BF00052F8B06F91F800C007FA0CF73E43166048
:100C00000A680A2A0BD30668B769093A02EB42025E
:100C100093409F438B6893401F43B7610AE0076886
:100C20007E69521C02EB420293409E438B689340C4
:100C30001E437E6103684FF0A0473B4EBB4201D08C
:100C4000B34201D1394A00E0394A0968102904D079
:100C5000112907D012290AD03BE0D2F808C04FEA88
:100C60000C2C08E0D2F808C04FEACC1C03E0D2F804
:100C700008C04FEA4C2CBCF1000F2ADBBB420DD060
:100C8000B34201D100970CE02A4EDFF8ACC0B3426A
:100C900002D1CDF800C004E0634501D1009600E028
:100CA00000959E6806F00306012E02D11E68F60725
:100CB0000AD1009E8EB1B66806F00306012E0CD153
:100CC000009E3668F60708D0016C41F020010164EF
:100CD000012480F83C5020468EE6102908D01129C6
:100CE0001AD01229F5D1916841F480019160F0E7A2
:100CF000BB42EED1916841F4000191600F49104A66
:100D00000968B1FBF2F101EB8101490000E0491EE5
:100D100000910029FBD1DCE7BB42DAD1916841F0B8
:100D20008071E3E700F0FF830001005000030050F2
:100D30000007005000040050000500501C00002077
:100D400040420F007047704770470000F0B54FF009
:100D5000000695B0040037463546009605D0206C55
:100D6000C00648D4206C18B133E0012015B0F0BDA6
:100D70006564E564A56484F83C50204600F022F9DF
:100D800020688068C00024D42046FFF7C9FC0646CE
:100D9000206CC0061DD4E6B9206C20F4885040F0C9
:100DA000020020642068816821F040518160206841
:100DB000816841F08051816079487A490068B0FBD0
:100DC000F1F000EB8000400000E0401E00900028A1
:100DD000FBD120688168C90002D5806880000AD5EF
:100DE000206C20F0020040F010002064606C40F0A5
:100DF000010060640126206CC00672D4002E70D100
:100E00002068816849076CD4216C21F4807141F01D
:100E1000020121644FF0A04E634B704501D098420F
:100E200001D1624A00E0624ADFF888C16249704538
:100E300001D100930EE0984202D1CDF800E009E024
:100E4000884202D1CDF800C004E0604501D1009194
:100E500000E00095836803F00303012B02D10068D2
:100E6000C00710D1009840B1806800F0030001284D
:100E700003D100980068C00705D19068636820F42A
:100E8000403018439060D4E902201043626B012A7D
:100E900002D04FF4805300E00023627E43EA4233E5
:100EA000184394F820303843012B0AD1D2B1226C78
:100EB00022F0020242F020022264626C42F001023F
:100EC0006264A26A012A37D023688B4201D063454D
:100ED0002DD14FF430714FF4E0778A420AD13A466F
:100EE00027E053E0A28C354B03EB4242024342F42D
:100EF0008030E6E74FF480739A4201D10A4618E049
:100F0000BA4201D11A4614E0B2F58A5F06D0B2F5B2
:100F1000845F06D0B2F5865F06D00AE04FF47072A7
:100F200007E04FF4A07204E04FF4C07201E022F435
:100F300080520243E06A104321688A6812F00C0F65
:100F40000BD1CA6844F202039A43CA60217E94F826
:100F50003020890341EA420108432268D168184BD6
:100F600019400143D160206901282068016B21F0FC
:100F70000F0102D1E269521E114301636564206CC6
:100F800020F0020040F00100206406E0206C20F018
:100F9000020040F01000206401263046E6E6000022
:100FA0001C00002040420F000001005000030050D0
:100FB0000007005000050050000400500000FEFF34
:100FC00007C0F0FF2DE9F04786B0054614216846BA
:100FD000FFF746F9354A2F6800241068032380265E
:100FE0003349401C4FF400784FF400694FF0200A59
:100FF000B7F1A04F07D0DFF8BCC0674529D110601A
:10100000012829D030E01060012807D1486940F05C
:1010100080504861486900F080500590486940F46C
:10102000002048614869694600F4002005900720C7
:101030008DE81900204800F0FBF9214F1F48E7E830
:1010400002041F48A7E8500747F81C4927E0AF6390
:101050007D6206B0BDE8F087486940F08050486185
:10106000486900F080500590486940F400304861BC
:101070004869694600F40030059040208DE8190069
:101080004FF0904000F0D4F90D4F0E484437E7E898
:1010900002040B48A7E85007443047F81C4900F009
:1010A00055F90028D3D0FFF7F5FBD0E70C0000205E
:1010B00000100240000100500008004808000240F3
:1010C000DC000020080402402DE9F05F04460068BF
:1010D0008B469246816849077ED494F83C100129DA
:1010E0000ED001214FF0A048DFF81091444F84F852
:1010F0003C10404501D0B84205D1D8F8080304E0BF
:101100000220BDE8F09FD9F800004FF0000610F073
:101110001F0F01D0012504E02046FFF737FB050033
:1011200002D084F83C6066E0206C40F601618843A0
:1011300040F48070206420684146884201D0B84263
:1011400002D1D1F8082301E0D9F8002012F01F0FD6
:1011500004D0884202D02B4A904207D1216C21F45E
:1011600080112164C06880010ED413E0226C42F427
:1011700080122264B84201D1C86802E021480C30D4
:10118000006810F0007F05D0206C20F4005040F47F
:1011900080502064206CC00404D5606C20F00600F0
:1011A000606400E0666484F83C60A16B1648886265
:1011B000A16B1648C862A16B1548086321681C2002
:1011C00008602068416841F0100141602068C168F2
:1011D00041F00101C16000E00CE0216853465A462D
:1011E0004031A06B00F0D9F82068816841F004011B
:1011F000816000E00225284683E7000008070050D0
:101200000001005000040050C10600081B07000840
:101210000507000810B590F821100022022905D01A
:101220000421816380F82020012010BD01680B6833
:1012300023F00E030B6001680B6823F001030B60C1
:1012400090F84030C46B012101FA03F3636080F829
:10125000211080F82020002010BD10B590F821103A
:101260000024022903D004218163012418E00168CD
:101270000A6822F00E020A6001680A6822F0010280
:101280000A6090F84020C36B012101FA02F25A6013
:1012900080F82110002180F82010416B01B18847AF
:1012A000204610BDF0B4C16B0D6801680C68066C77
:1012B000042202FA06F32B420FD063070DD50B6808
:1012C0009B0603D40B6823F004030B6090F84010D6
:1012D0008A40C16B4A60C16A1BE0022303FA06F729
:1012E0002F424FF0000C4FF0010216D0A70714D583
:1012F0000C68A40605D40C6824F00A040C6080F87D
:10130000212090F840108B40C16B4B6080F820C0CA
:10131000816A002918D0F0BC08470823B3402B424B
:1013200012D0230710D50B6823F00E030B6090F842
:101330004010C36B02FA01F15960826380F82120EA
:1013400080F820C0016BE4E7F0BC704770B5040082
:1013500021D0022084F821002268116843F6F07041
:101360008143D4E901031843D4E903352B431843DF
:1013700063691843A3691843E3691843084310607D
:101380002046FFF753FA0020A063012184F82110C2
:1013900084F8200070BD012070BD70B5044690F83F
:1013A0002000002501280CD0012084F8200094F8AA
:1013B00021600020012E06D084F820000225284656
:1013C00070BD022070BD022684F82160A0632068F1
:1013D000066826F0010606602046FFF745FAE06A37
:1013E00000282068016802D041F00E0106E041F0BB
:1013F0000A0101602068016821F004010160206891
:10140000016841F001010160D9E7000070B50446B0
:1014100000F03CF90546601C02D004480078044402
:1014200000F034F9401BA042FAD370BD1000002038
:101430002DE9F04FDFF82492002209F1040A012679
:1014400003250AF1040B85B00F270BF1040EFCE015
:1014500006FA02F423407CD091F804C00CF0030C8F
:10146000BCF1010F02D0BCF1020F26D1D0F808C0A8
:10147000CDF800C04FEA420C05FA0CF8CDF810C0C8
:10148000DDF800C02CEA080CCDF800C0D1F80C80C3
:10149000DDF810C008FA0CF8DDF800C048EA0C08C6
:1014A000C0F80880D0F804C02CEA040C0C79C4F30E
:1014B0000014944044EA0C0444600C79E443A4070B
:1014C0000ED0C4684FEA420805FA08FC24EA0C046E
:1014D000D1F808C00CFA08FC4CEA040CC0F80CC0A7
:1014E0000C7904F00304022C15D1D40800EB840419
:1014F0000294246A4FEA427C4FEADC6807FA08FC4F
:1015000024EA0C04D1F810C00CFA08FC4CEA040CD4
:10151000029CC4F820C004684FEA420805FA08FC9F
:1015200024EA0C0491F804C00CF0030C0CFA08FC3B
:101530004CEA040CC0F800C04C6814F4403F08D0DA
:10154000474CD4F818C04CF0010CC4F818C0A4697A
:1015500000E079E004F001040094424C22F0030C16
:1015600064440294A4684FEA827C4FEA1C7807FA2C
:1015700008FC24EA0C04B0F1904F06D0DFF8E8C074
:10158000604505D14FF0010C27E04FF0000C24E03E
:10159000DFF8D8C0604502D14FF0020C1DE0DFF843
:1015A000D0C0604502D14FF0030C16E0DFF8C4C094
:1015B000604502D14FF0040C0FE0DFF8BCC060457D
:1015C00002D14FF0050C08E0DFF8B0C0604502D151
:1015D0004FF0060C01E04FF0070C0CFA08FC4CEA47
:1015E000040C029CC4F808C0D9F80040CC46D1F8DD
:1015F00004809C435FEAC83800D51C43CCF8004007
:10160000DAF80040D446D1F804809C435FEA883879
:1016100000D51C43CCF80040DBF80040DC46D1F894
:1016200004809C435FEAC82800D51C43CCF80040E6
:10163000DEF80040F446D1F804809C435FEA882835
:1016400000D51C43CCF80040521C0B6833FA02F45E
:101650007FF4FEAE05B0BDE8F08F0000000401404D
:10166000001002400000014000040048000800484B
:10167000000C004800100048001400480018004802
:101680000AB181617047816270470000014880683B
:101690007047000010000020024881680278114461
:1016A0008160704710000020074810B5016841F0C4
:1016B00010010160032000F06FF8002000F006F830
:1016C00000F024F8002010BD0020024070B50D4D40
:1016D00004464FF47A712878B1FBF0F00A490968A2
:1016E000B1FBF0F000F098FD48B9102C07D20022B1
:1016F0002146501E00F030F800206C6070BD0120C3
:1017000070BD0000100000201C0000200A4882B0BC
:10171000816941F001018161816901F0010100915C
:10172000C16941F08051C161C06900F080500090F2
:10173000062002B000F030B800100240002809DB9B
:1017400000F01F02012191404009800000F1E020DB
:10175000C0F8001170470000F0B40E4B1B680C4637
:10176000C3F30223C3F10705042D00D90425191D75
:10177000072901D2002300E0DB1E012606FA05F14D
:10178000491E214099409E40761E16403143F0BCD0
:1017900001F00ABF0CED00E0064900F007020868FE
:1017A0004FF6FF03184040EA0220034A1043086046
:1017B000704700000CED00E00000FA052DE9F84F3D
:1017C0000446006800269F4DC0036ED5E869C0003E
:1017D00008D4E86940F08050E861E869012600F02B
:1017E0008050009098480168C90512D4016880466D
:1017F00041F480710160FFF749FF074605E000BF33
:10180000FFF744FFC01B642835D8D8F80000C00596
:10181000F6D5286A10F4407053D0A18801F44071C5
:1018200081424ED0286A4FF4803191FAA1F2B2FA87
:1018300082F29700854A4FF00108174420F4407067
:10184000C7F8008491FAA1F1B1FA81F102EB8101AC
:101850000023C1F800342862C00732D0FFF716FF1A
:10186000074641F2883A4FF0020907E0FFF70EFF02
:10187000C11B514502D90320BDE8F88F99FAA9F19F
:10188000B1FA81F141F040014846B8EB511F01D156
:1018900029680CE090FAA0F1B1FA81F141F0400121
:1018A000B0EB511F02D1296A01E015E0696A99FA8B
:1018B000A9F0B0FA80F000F01F0008FA00F211421F
:1018C000D4D0286A616820F44070084328621EB1B1
:1018D000E86920F08050E8612078C00705D0286BC7
:1018E000A16820F00300084328632078800705D50D
:1018F000286BE16820F440300843286320784007D3
:1019000005D5286B216920F44020084328632078FE
:10191000800605D5286BE16920F010000843286394
:101920002068800305D56868616D20F48000084355
:1019300068602078400605D5286B216A20F02000D9
:10194000084328632068400305D5286B616A20F0AE
:101950004000084328632078000705D5286B61699B
:1019600020F44010084328632078C00605D5286B72
:10197000A16920F44000084328632088800505D52C
:101980006868216B20F40000084368602078000636
:1019900005D5E86AA16A20F4F8700843E862208857
:1019A000C00505D5E86AE16A20F478500843E8628A
:1019B0002088C00405D5286B616B20F48070084333
:1019C00028632088800405D5286B216C20F40070E2
:1019D000084328632068C00205D5286BA16B20F05E
:1019E0008070084328632068800205D5286BE16B6E
:1019F00020F00070084328632068400205D5286B5A
:101A0000616C20F48060084328632068000205D5DB
:101A1000286BA16C20F40060084328632068C00193
:101A200005D5286BE16C20F400500843286320683A
:101A3000800105D5286B216D20F400400843286300
:101A4000002019E7001002400070004000004242F0
:101A50002DE9F0470F46050069D04A4E306800F086
:101A60000700B84209D2306820F0070038433060E0
:101A7000306800F00700B84259D12878424C8007FE
:101A800005D56068A96820F0F000084360602878F8
:101A9000C0073DD06968012001290DD0022923D05B
:101AA0005FF0020393FAA3F2B2FA82F242F020024C
:101AB000520904D0226803E04FF40033F2E7626A6F
:101AC00093FAA3F3B3FA83F303F01F03984002429F
:101AD0002DD0606820F0030008436060FFF7D6FD5A
:101AE000804641F288390CE04FF00073DAE700BF1E
:101AF000FFF7CCFDA0EB0801494502D90320BDE862
:101B0000F0876068696800F00C00B0EB810FEFD1DE
:101B1000306800F00700B8420BD9306820F00700A9
:101B200038433060306800F00700B84201D001202F
:101B3000E5E72878400705D56068E96820F4E060AB
:101B4000084360602878000706D56068296920F49A
:101B5000605040EAC100606000F04EF86168F02219
:101B600092FAA2F201F0F001B2FA82F2D140074AF1
:101B7000515CC8400649086006480068FFF7A6FDAA
:101B80000020BCE70020024000100240143C000886
:101B90001C0000201400002008480949006849681A
:101BA0004FF4E06292FAA2F201F4E061B2FA82F23A
:101BB000D140044A515CC840704700001C0000201E
:101BC00000100240243C00080848094900684968A0
:101BD0004FF4605292FAA2F201F46051B2FA82F22A
:101BE000D140044A515CC840704700001C000020EE
:101BF00000100240243C0008144A10B551681448F3
:101C000001F00C03042B1FD0082B1DD14FF47014CE
:101C100094FAA4F401F47013B4FA84F4E3400D4C84
:101C2000D26AE45C0F2393FAA3F302F00F02B3FA33
:101C300083F3DA40074BC90310339A5C002319463B
:101C4000FEF7C6FAA0FB040110BD00000010024020
:101C500000127A00F43B00082DE9F84F04007DD013
:101C60002078FA4DC0074FF0010637D06868770436
:101C7000C0F38100012819D06868C0F381000228F0
:101C800004D16868C0F3C13002280FD06068B0F595
:101C9000803F24D010B1B0F5A02F2AD0286820F4BE
:101CA00080302860286820F480201BE097FAA7F095
:101CB000B0FA80F040F02000400901D0286800E030
:101CC000686A97FAA7F1B1FA81F101F01F0106FAEB
:101CD00001F108424ED060680028C0D04AE0286870
:101CE00040F480302860606820B3FFF7CFFC804666
:101CF0000AE0286840F480202860F0E7FFF7C6FC7F
:101D0000A0EB0800642873D897FAA7F0B0FA80F027
:101D100040F02000400901D0286800E0686A97FA86
:101D2000A7F1B1FA81F101F01F0106FA01F10842B1
:101D3000E4D01FE0FFF7AAFC804605E0FFF7A6FC11
:101D4000A0EB08006428DED897FAA7F0B0FA80F07C
:101D500040F02000400902D0286801E0B9E0686A3C
:101D600097FAA7F1B1FA81F101F01F0106FA01F12A
:101D70000842E3D12078DFF8D88280074FF0000ACC
:101D80004FF002075DD568684FF0F80B10F00C0FAC
:101D900015D06868C0F38100022804D16868C0F3D8
:101DA000C13001280BD0E068A0B396FAA6F0B0FAD3
:101DB00080F048F82060FFF769FC814620E097FA40
:101DC000A7F0B0FA80F040F02000400901D0286868
:101DD00000E0686A97FAA7F1B1FA81F101F01F01FA
:101DE00006FA01F1084221D0E068012871D11DE016
:101DF00056E100BFFFF74AFCA0EB09000228A2D879
:101E000097FAA7F0B0FA80F040F02000400902D025
:101E1000286801E016E0686A97FAA7F1B1FA81F143
:101E200001F01F0106FA01F10842E3D028689BFA8D
:101E3000ABF22169B2FA82F220F0F8009140084337
:101E4000286024E096FAA6F1B1FA81F148F821A0C1
:101E5000FFF71CFC814605E0FFF718FCA0EB09002A
:101E60000228CCD897FAA7F0B0FA80F040F0200012
:101E7000400901D0286800E0686A97FAA7F1B1FA32
:101E800081F101F01F0106FA01F10842E4D1207846
:101E900000076AD56069A0B396FAA6F0B0FA80F0A0
:101EA00008EB8000C0F88064FFF7F0FB814605E096
:101EB000FFF7ECFBA0EB09000228A0D897FAA7F0E7
:101EC000B0FA80F040F06000B6EB501F02D12868F5
:101ED0000CE09DE197FAA7F0B0FA80F040F06000C6
:101EE000B7EB501F01D1286A00E0686A97FAA7F1A2
:101EF000B1FA81F101F01F0106FA01F21042D7D0C8
:101F000033E0FFE796FAA6F0B0FA80F008EB800025
:101F1000C0F880A4FFF7BAFB814605E0FFF7B6FBE7
:101F2000A0EB090002289CD897FAA7F0B0FA80F03D
:101F300040F06000B6EB501F01D128680BE097FA23
:101F4000A7F0B0FA80F040F06000B7EB501F01D16D
:101F5000286A00E0686A97FAA7F1B1FA81F101F006
:101F60001F0106FA01F21042D8D12078400774D53B
:101F7000E8694FF00009C00009D4E86940F08050DA
:101F8000E861E8694FF0010900F0805000903148A5
:101F90000168C90512D4016841F480710160FFF73E
:101FA00075FB834606E000BFFFF770FBA0EB0B005C
:101FB000642875D827480068C005F5D5A0680128B1
:101FC0000AD008B1052811D0286A20F00100286243
:101FD000286A20F0040002E0286A40F0010028622C
:101FE000A068C8B3FFF752FB83460DE0286A40F0B3
:101FF00004002862F0E700BFFFF748FBA0EB0B01ED
:1020000041F2883081424BD897FAA7F0B0FA80F0BD
:1020100040F04000B6EB501F01D128680BE097FA62
:10202000A7F0B0FA80F040F04000B7EB501F01D1AC
:10203000286A00E0686A97FAA7F1B1FA81F101F025
:102040001F0106FA01F21042D6D035E0001002401E
:10205000000042420070004000E034E0FFF716FB51
:10206000834607E0FFF712FBA0EB0B0141F288303B
:10207000814215D897FAA7F0B0FA80F040F04000FE
:10208000B6EB501F01D128680CE097FAA7F0B0FA20
:1020900080F040F04000B7EB501F02D1286A01E009
:1020A00089E0686A97FAA7F1B1FA81F101F01F019E
:1020B00006FA01F21042D5D1B9F1000F03D0E86958
:1020C00020F08050E861A06980B36968C1F38101A4
:1020D000022973D04FF080714F000228524609D078
:1020E00091FAA1F0B0FA80F048F82020FFF7CEFA7C
:1020F000044664E091FAA1F0B0FA80F08A46C14645
:1021000048F82020FFF7C2FA804605E0FFF7BEFA44
:10211000A0EB080002284ED897FAA7F0B0FA80F09A
:1021200040F02000400902D0286801E072E0686AAF
:1021300097FAA7F1B1FA81F101F01F0106FA01F156
:102140000842E3D1E86A616A20F00F000843E862C0
:10215000D4E907100843696821F4761108436860E0
:102160009AFAAAF0B0FA80F049F82060FFF78EFAE8
:10217000044604E0FFF78AFA001B02281BD897FAEE
:10218000A7F0B0FA80F040F02000400901D02868A4
:1021900000E0686A97FAA7F1B1FA81F101F01F0136
:1021A00006FA01F10842E5D034E000BFFFF76EFA0D
:1021B000001B022803D90320BDE8F88F15E097FA29
:1021C000A7F0B0FA80F040F02000400901D0286864
:1021D00000E0686A97FAA7F1B1FA81F101F01F01F6
:1021E00006FA01F10842E1D114E00128E4D0686860
:1021F000E96AE36900F4C0329A4209D1226A00F424
:102200007010904204D101F00F00616A884201D041
:102210000120D1E70020CFE710B5401EB0F1807F4C
:1022200001D3012010BD4FF0E02460610F21601741
:1022300001F0BAF90020A06107202061002010BD44
:10224000F0B590F83C20012A3CD0012580F83C50A4
:10225000022280F83D200268536894681A4E1B4F92
:10226000DFF86CC0B24203D0BA4201D0624504D15B
:1022700023F4700E4B6843EA0E0323F0700E0B68D4
:1022800043EA0E0353600268B2420FD0B2F1804FAE
:102290000CD0104B9A4209D00F4B9A4206D0BA424A
:1022A00004D00E4B9A4201D0624504D1896824F0D3
:1022B00080031943916080F83D50002180F83C1064
:1022C0000846F0BD0220F0BD002C01400034014062
:1022D0000050014000040040000800400040014060
:1022E00010B5040003D094F83D0010B107E00120C0
:1022F00010BD002084F83C00204600F023F80220A6
:1023000084F83D00211D206800F0A2FD012084F822
:10231000480084F83E0084F83F0084F8400084F8C8
:10232000410084F8420084F8430084F8440084F8B3
:10233000450084F8460084F8470084F83D000020FA
:1023400010BD000008B50C4A01680C48914207D145
:10235000C16941F00201C161C06900F0020009E0F9
:10236000074A914207D1C16941F00401C161C069C6
:1023700000F00400009008BD00040040001002407E
:102380000008004090F83D10012901D0012070475D
:10239000022180F83D1000681149884211D0B0F147
:1023A000804F0ED00F4988420BD00F49884208D089
:1023B0000E49884205D00E49884202D00D49884214
:1023C00007D181680C4A1140062906D0B1F5803F3B
:1023D00003D0016841F00101016000207047000056
:1023E000002C01400004004000080040003401407F
:1023F00000400140005001400700010070B5044654
:1024000090F83C000025012817D0012684F83C6094
:10241000022084F83D00226890682F4B184020F479
:102420007F4090600868502838D00DDC20284FD0BD
:1024300005DC90B3102811D14AE0022070BD30288D
:1024400046D040280AD13BE060282FD070280DD01C
:10245000B0F5805F03D0B0F5005F12D0012584F89D
:102460003D60002084F83C00284670BDCB68D1E96F
:102470000121206800F04EFD2068816841F077015D
:1024800009E0CB68D1E90121206800F043FD206814
:10249000816841F480418160E1E719E0CA684968D8
:1024A000206800F049FD5021206806E0CA684968AC
:1024B000206800F052FD6021206800F035FDCEE775
:1024C000CA684968206800F037FD40212068F4E7B9
:1024D000226801461046F0E788FFFEFF704770470C
:1024E000704700002DE9F04102680446D069116888
:1024F000936840F60F0528424FF0000505D1860687
:102500007ED58E067CD5616E1AE1994F03F00106E7
:102510000F40374374D0C70709D0CF0507D501272F
:102520001762D4F8802042F00102C4F880208207AC
:102530000AD5DA0708D0276802223A62D4F8802048
:1025400042F00402C4F8802042070AD5DA0708D016
:10255000236804221A62D4F8802042F00202C4F8F0
:10256000802002070CD501F02002324308D02368F6
:1025700008221A62D4F8802042F00802C4F88020B1
:1025800002050BD54A0109D523684FF400621A628F
:10259000D4F8802042F02002C4F88020D4F88020B3
:1025A000002A35D0800605D5880603D5616E09B1AD
:1025B00020468847D4F8800021688968490602D4FB
:1025C00010F0280F26D0204600F00DFE206880680D
:1025D00040061AD52068083050E8001F21F040015D
:1025E00040E80012002AF5D1206F70B161494163C3
:1025F000206FFEF732FE00280AD0206F416B01E009
:102600000EE02046BDE8F04108472046FFF768FF8E
:10261000BDE8F0812046FFF763FFC4F88050F7E77C
:10262000276E2026012F7AD1C70678D5CF0676D51A
:102630001020106220688068400640D5216F08682D
:1026400040680004000CE3D0B4F858208242DFD97F
:10265000A4F85A00886920282AD0216851E8000F80
:1026600020F4807041E80002002AF6D1206808308A
:1026700050E8001F21F0010140E80012002AF5D1C6
:102680002068083050E8001F21F0400140E80012A7
:10269000002AF5D1E6672566216851E8000F20F091
:1026A000100041E80002002AF6D1206FFEF7B2FDCB
:1026B000B4F85800B4F85A10401A81B22AE0B4F8BD
:1026C0005800B4F85A10401A81B2B4F85A000028E1
:1026D0009ED000299CD0226852E8000F20F4907010
:1026E00042E80003002BF6D12068083050E8002FA4
:1026F00022F0010240E80023002BF5D1E6672566B1
:102700006566226852E8000F20F0100042E80003DE
:10271000002BF6D12046FFF7E1FE79E7FFE7C7027D
:1027200009D55B0207D54FF4801010622046BDE842
:10273000F041FFF7D4BE020606D50A0604D5A16E05
:1027400000297FF45EAF63E74006E6D54806E4D58E
:102750002046016851E8002F22F0400241E80023A2
:10276000002BF6D18667856600F050F950E700002F
:1027700020010004A330000810B5040002D0A06FAF
:1027800010B107E0012010BD002084F8740020463D
:1027900000F026F82420A0672068016821F00101DC
:1027A0000160204600F050FD0128ECD0606A10B1B5
:1027B000204600F0E4FB2068416821F4904141602C
:1027C0002068816821F02A0181602068016841F059
:1027D000010101602046BDE8104000F034BC00005B
:1027E0002DE9F04387B0064614216846FDF738FD11
:1027F00037493068884267D13648816941F4804161
:102800008161816901F480410591416941F40021B0
:102810004161416901F400210591416941F40031B0
:1028200041614069202700F400304FF0070900970C
:10283000CDE904904FF0030802250024CDF80C8068
:10284000CDE9015469462448FEF7F2FD2802CDE99E
:10285000000502AA694682E810034FF09040FEF797
:10286000E7FD1F4D1D484FF08008C5E90004C5E98C
:1028700002482C6180146C61C5E906702846FEF799
:1028800065FD08B1FEF706F835676E62144D134812
:102890004435143801C51020A5E81101104845F849
:1028A000104944306C61AC61EC61FEF74FFD08B13A
:1028B000FDF7F0FFF5660022114625206E62FEF757
:1028C0004BFF2520FEF73AFF07B0BDE8F08300007C
:1028D0000038014000100240000800485800024043
:1028E0008002002030B4C36F202B1DD1C9B1C2B10A
:1028F00090F87430012B17D0012380F87430002336
:10290000036603685B681B0208D5046854E8003F4F
:1029100043F0806344E80035002DF6D130BC00F070
:1029200077BD012030BC70470220FBE700680A49F0
:1029300088420FD109480A4B416802785A54491C11
:1029400041603B2A01D10121417001220349054820
:10295000FFF7C8BF704700000038014000000020AA
:1029600024000020FC0100207047000070B50446E0
:10297000806F202841D169B362B394F874000128B4
:102980003BD0012084F87400E164A4F85020A4F83E
:1029900052200025C4F880502120A067E06ED8B1F5
:1029A00017498162E16E17481346C862E16E164806
:1029B0000863E06E45632668E16C06F12802E06E6C
:1029C000FEF7EBFC40B11020C4F8800004F8745FFF
:1029D00020206060012070BD21684020086284F8DA
:1029E00074502068083050E8001F41F0800140E832
:1029F0000012002AF5D1002070BD022070BD000039
:102A00009D310008DD310008B7300008704770477D
:102A1000FEE7000070B58AB00024069407941821E0
:102A200068460894FDF71CFC25484FF0A04101259D
:102A3000C0E9001405618460447680F82040A90252
:102A4000C1620326C6618910C460816280F830507B
:102A50000421416104764463FEF778F908B1FDF77B
:102A600019FF06A916480694FDF716FF08B1FDF7F1
:102A700011FF0620CDE900050520CDE902040494EC
:102A800069460F480594FDF793FF08B1FDF702FF73
:102A9000072000900220019069460948FDF788FF51
:102AA00008B1FDF7F7FE0820CDE9000669460448A5
:102AB000FDF77EFF002801D0FDF7ECFE0AB070BDE7
:102AC0003C00002030B587B018216846FDF7C8FBF0
:102AD000184817490024C0E9001484600461447652
:102AE00080F820404FF48061C1620125C5618910E2
:102AF000C460816280F830500421416104764463EF
:102B0000FEF724F908B1FDF7C5FE0320CDE9000565
:102B10000520CDE902040494694606480594FDF7B2
:102B200047FF002801D0FDF7B5FE07B030BD00001B
:102B3000000100508C000020194808B5416941F09F
:102B400001014161416901F001010091416941F0D8
:102B5000020141614069002200F00200009011462C
:102B60000B20FEF7F9FD0B20FEF7E8FD00221146D1
:102B70000E20FEF7F1FD0E20FEF7E0FD00221146CB
:102B80000F20FEF7E9FD0F20FEF7D8FD00221146C9
:102B90003820FEF7E1FDBDE808403820FEF7CEBD45
:102BA000001002402DE9F04387B014216846FDF77C
:102BB00057FB3748416941F400214161416901F403
:102BC00000210591416941F480014161416901F4AD
:102BD00080010591416941F400314161416901F48D
:102BE00000310591416941F48021416140694FF410
:102BF000846500F480204FF090470590002229461C
:102C00003846FEF73DFDDFF88C804FF48E660022DB
:102C100031464046FEF734FDDFF87C9000228021EB
:102C20004846FEF72DFD4FF400500090E8020024C6
:102C3000CDE9010469464846FEF7FAFB0C200090F6
:102C40000220CDE901040720CDE90340694638465A
:102C5000FEF7EEFB00950125CDE9015469463846A3
:102C60000394FEF7E5FB0096CDE901546946404622
:102C70000394FEF7DDFB80200090CDE90154694606
:102C800048460394FEF7D4FB07B0BDE8F08300008C
:102C900000100240000400480008004810B588B049
:102CA0000024184800940194029403940494059419
:102CB00013490694016041F61F41C0E9011409213E
:102CC000C0E903148461FFF70BFB08B1FDF7E2FDD7
:102CD0004FF48050009069460A48FFF78FFB08B117
:102CE000FDF7D8FD2020049004A906940548FFF7BD
:102CF000A7FA002801D0FDF7CDFD08B010BD0000F7
:102D0000000400406401002010B588B00024184879
:102D10000094019402940394049405941349069436
:102D2000016041F61F41C0E901140921C0E9031403
:102D30008461FFF7D5FA08B1FDF7ACFD4FF4805080
:102D4000009069460A48FFF759FB08B1FDF7A2FD5C
:102D50002020049004A906940548FFF771FA002882
:102D600001D0FDF797FD08B010BD0000000800403D
:102D7000B00100200D4810B50B4901604FF4E1315E
:102D80004160002181600C22C160C0E904128161B0
:102D9000C16101624162FFF7EFFC002803D0BDE88A
:102DA0001040FDF777BD10BD00380140FC01002048
:102DB000FEE7FEE770477047FEF76EBC30B5A5B082
:102DC000282116A8FDF74CFA142120A8FDF748FA8F
:102DD00058216846FDF744FA012019901020022579
:102DE0001A90C002CDE91C504FF4E0100024CDE948
:102DF0001E04169516A8FEF72FFF08B172B6FEE75F
:102E00000F20CDE920054FF48060CDE9224002215A
:102E100020A82494FEF71CFE08B172B6FEE707480E
:102E2000009040130F940A9002946846FEF7C6FC87
:102E3000002801D072B6FEE725B030BD8100200029
:102E40000248016841F470010160704788ED00E0BC
:102E50002DE9F0470268274B274E284F284C294D73
:102E60004FF0804A984209D0504507D0B04205D073
:102E7000B84203D0A04201D0A84204D122F0700C85
:102E80004A6842EA0C02DFF880C0DFF88080DFF891
:102E9000809098420FD050450DD0B0420BD0B84230
:102EA00009D0A04207D0604505D0404503D0484531
:102EB00001D0A84203D122F44076CA6832434E6959
:102EC00022F08002324302608A68C2620A6882622B
:102ED000984209D0A04207D0604505D0404503D0B4
:102EE000484501D0A84201D109690163012141612E
:102EF000BDE8F087002C01400004004000080040BD
:102F000000340140005001400040014000440140B5
:102F10000048014010B5846842EA032224F47F444B
:102F20000A432243826010BD826822F070020A4385
:102F300042F007018160704710B5036A046A24F00B
:102F400001040462846924F0F00444EA021423F0CA
:102F50000A020A438461026210BD10B5036A23F0BD
:102F6000100303628369046A23F4704343EA023264
:102F700024F0A00343EA01118261016210BD90F8C0
:102F80002410C90706D001684A68836A22F4003217
:102F90001A434A6090F82410890706D501684A68E8
:102FA000C36A22F480321A434A6090F82410490719
:102FB00006D501684A68036B22F480221A434A60EE
:102FC00090F82410090706D501684A68436B22F47B
:102FD00000421A434A6090F82410C90606D50168D9
:102FE0008A68836B22F480521A438A6090F8241016
:102FF000890606D501688A68C36B22F400521A4319
:103000008A6090F82410490611D501684A68036C5B
:1030100022F480121A434A60016CB1F5801F06D178
:1030200001684A68436C22F4C0021A434A6090F86F
:103030002410090606D501684A68806C22F4002233
:1030400002434A607047F8B500260446C0F8806025
:10305000FEF71CFB0546206800686FF07E470007FE
:1030600008D52B4600224FF400112046009700F0AF
:103070001FFA60B92068006840070AD52B46002275
:103080004FF480012046009700F012FA08B10320A7
:10309000F8BD2020A067E067266684F874600020F1
:1030A000F8BD10B5406A0021A0F85A10A0F85210DF
:1030B000FFF716FA10BD70B5446AA06FE56F21687E
:1030C00089684FF00006090606D5212804D1A4F826
:1030D0005260204600F0ACF820688068400606D5B3
:1030E000222D04D1A4F85A60204600F07CF8D4F8D0
:1030F000800040F01000C4F880002046FFF7F0F98F
:1031000070BD10B50146406A896920292DD0002183
:10311000A0F85A10026852E8001F21F4807142E8BA
:103120000013002BF6D10168083151E8002F22F07E
:10313000010241E80023002BF5D10168083151E874
:10314000002F22F0400241E80023002BF5D120217E
:10315000C167016E012908D1026852E8001F21F001
:10316000100142E80013002BF6D1016E012902D0B4
:10317000FFF7DCFB10BDB0F85810FFF7AFF910BD3A
:1031800010B5406A016E012902D0FFF7EDFB10BDBA
:10319000B0F858104908FFF7A1F910BD10B5014665
:1031A000406A8969202916D00021A0F852100168D0
:1031B000083151E8002F22F0800241E80023002B63
:1031C000F5D1026852E8001F41F0400142E80013C7
:1031D000002BF6D110BDFFF719FC10BD10B5406AE9
:1031E000FFF715FC10BD016851E8002F22F4907222
:1031F00041E80023002BF6D10168083151E8002F87
:1032000022F0010241E80023002BF5D1016E0129D3
:1032100008D1026852E8001F21F0100142E80013B3
:10322000002BF6D12021C16700210166416670475D
:10323000026852E8001F21F0C00142E80013002B91
:10324000F6D120218167704770B5044680682169F6
:10325000E269084361690025114322680843116847
:10326000634B19400143116020684168E26821F412
:10327000405111434160216AA0690143206882687E
:1032800022F430620A4382605A4A20685A499042C6
:103290000CD1086B10F0030006D001285FD0022883
:1032A0005FD0032845D158E0012143E0534A9042C2
:1032B0000DD1086B10F440304DD0B0F5803F4ED0AA
:1032C000B0F5003F4DD0B0F5403F32D145E04C4A1B
:1032D00090420DD1086B10F440203CD0B0F5802F07
:1032E0003DD0B0F5002F3CD0B0F5402F21D134E0D7
:1032F000444A90420DD1086B10F440102BD0B0F529
:10330000801F2CD0B0F5001F2BD0B0F5401F10D17E
:1033100023E03D4A90420CD1086B10F440001AD0D3
:10332000B0F5800F1BD0B0F5000F1AD0B0F5400FEC
:1033300013D01021E3694FF40040344A4FF6EF7682
:1033400083422ED109294AD2DFE801F00D1013493A
:103350001549494918000021ECE70221EAE7042158
:10336000E8E70821E6E7FEF717FC06E0FEF72CFC8D
:1033700003E0104602E0FEF73FFC88B341006068BE
:1033800001EB5001B1FBF0F081B2A1F11000B042AD
:1033900025D84FF6F07201EA0200C1F3420108435A
:1033A0001FE009291BD2DFE801F005080B1A0D1AEE
:1033B0001A1A1000FEF7F0FB06E0FEF705FC03E02A
:1033C000104602E0FEF718FC50B1616800EB5100B6
:1033D000B0FBF1F080B2A0F11001B14201D901259A
:1033E00001E02168C86000206066A066284670BDC4
:1033F000F369FFEF00380140001002400044004034
:1034000000480040004C00400050004000127A008C
:1034100070B54165A0F8582000250446C0F88050DA
:103420002220E067206FD8B11E498162216F1E48BB
:103430001346C862216F1D480863206F4563666D9F
:10344000216832462431206FFDF7A7FF40B11020DC
:10345000C4F8800004F8745F2020A060012070BDD3
:1034600084F87450216851E8000F40F4807041E8FE
:103470000002002AF6D12068083050E8001F41F011
:10348000010140E80012002AF5D12068083050E818
:10349000001F41F0400140E80012002AF5D1002051
:1034A00070BD00000331000881310008B73000080A
:1034B0002DE9F0479A4617460E4604464FF000099C
:1034C0004FF02008089D4AE0681C48D0FEF7DEF85F
:1034D000A0EB0A00A8422AD84DB32068016849072A
:1034E0003DD5C069C043000539D421684FF4006060
:1034F0000862206850E8001F21F4D07140E80012F3
:10350000002AF6D12068083050E8001F21F00101A0
:1035100040E80012002AF5D1C4F87880C4F87C8015
:10352000C4F8808084F874900320BDE8F087216897
:1035300051E8000F20F4D07041E80002002AF6D1D3
:103540002068083050E8001F21F0010140E8001217
:10355000002AF5D1C4F87880C4F87C80E2E72068BE
:10356000C06936EA000004D00020B842ACD0002088
:10357000DBE70120F9E700000148FEF7B3BF0000D8
:10358000FC010020FEE700000FB4054B10B503A9B5
:10359000044A029800F028F810BC5DF814FB000003
:1035A000A1370008200000200907090E002804DBCD
:1035B00000F1E02080F80014704700F00F0000F1E7
:1035C000E02080F8141D704702E008C8121F08C1EF
:1035D000002AFAD170477047002001E001C1121F94
:1035E000002AFBD1704700002DE9FF4F8BB09A46AF
:1035F0000F460546002606E025280BD052460D99B9
:1036000090476D1C761C28780028F5D10FB0304605
:10361000BDE8F08F0024A0460122604900E0044389
:1036200015F8013F203B02FA03F00842F7D1287851
:103630002E2817D115F8010F44F004042A280ED0C3
:103640006FF02F022878A0F1300109290AD808EB81
:10365000880102EB410100EB01086D1CF2E757F80D
:10366000048B6D1C287869283ED006DC0028CDD05C
:1036700063280BD0642804D136E0732810D0752855
:103680004BD052460D999047761C85E017F8040BF5
:103690008DF8000000208DF80100E946012003E0CC
:1036A00057F8049B4FF0FF3061074FF0000401D43E
:1036B0000AE0641C44450DDA8442FADB19F8041070
:1036C0000029F6D106E0641C8442FCDB19F80410E2
:1036D0000029F8D1264404E019F8010B52460D994F
:1036E0009047641EF8D257E001CF4FF00A0B002834
:1036F00002DA40422D2102E0210504D52B218DF86C
:103700002410012103E0E10705D02021F7E70DF1A6
:10371000200908910CE00021F9E701CF4FF00A0BD6
:10372000F9E75946FCF7EFFE01F1300209F8012DE7
:103730000028F6D1ADEB090000F1200B600701D4A1
:103740004FF00108D84502DDA8EB0B0000E0002097
:103750008046002406E009A85246005D0D99904776
:10376000641C761C08988442F5DB04E03020524645
:103770000D999047761CB8F10001A8F10108F5DC1D
:1037800005E019F8010B52460D999047761CBBF1E4
:103790000001ABF1010BF4DC6D1C34E709280100DA
:1037A00013B5012269460448FFF7E0F80120FDF750
:1037B0002DFE00201CBD0000FC01002070B51E4E37
:1037C00004462DED028BB0EE608AF0EE408A4FF495
:1037D0008065012804D0022C05D0032C06D00AE015
:1037E0000122202104E00122294601E0012240219A
:1037F0003046FDF745FFF4EEC88AF1EE10FA18DD09
:10380000012C0DD0022C10D0032C12D100220B4819
:10381000802100BFBDEC028BBDE87040FDF730BFDA
:10382000002229464FF09040F4E700221021304654
:10383000F0E7BDEC028B70BD0004004800080048B2
:103840002DED0C8BFDF730FFFFF7B8FAFFF7AAF963
:10385000FFF772F9FFF78EFAFFF7DCF8FFF71EFAB1
:10386000FFF730F9FFF750FA0122CB49CB48FFF7B9
:1038700039F8CB48FEF786FD0322CA49CA48FDF74E
:1038800023FCC84D9FEDC98A9FEDC9BA9FEDC99B26
:103890009FEDCAABA5F10C060027DFEDCABADFED3C
:1038A000CA8A9FEDCACABC4CDFF82493DFF824B360
:1038B0004FF480684FF0904AC7A0A168FFF764FEFC
:1038C000D5ED010A95ED000AF8EE600AB8EE400A5F
:1038D00060EE880A20EE080A60EE8BCAD5ED020A77
:1038E00020EE0B0AF8EE600A10EE100A60EE880A6D
:1038F00020EE8BDAFCF7D8FD53EC192BFCF762FDB8
:1039000053EC1A2BFCF758FDFCF7E1FD0DEE900A85
:103910001CEE900AFCF7C8FD53EC192BFCF752FD86
:1039200053EC1A2BFCF748FDFCF7D1FD0CEE900A86
:103930001DEE100AFCF7B8FD53EC192BFCF742FD05
:1039400053EC1A2BFCF738FDFCF7C1FD0DEE100A05
:10395000607868B13178A170A1A0FFF715FE002052
:10396000616801E03754401C8842FBD36760677090
:10397000A078A0F16101192901D939280ED10122BD
:1039800041465046FDF77CFE012210214846FDF7D6
:1039900077FE012280215846FDF772FEA0786D283F
:1039A00078D019DC662849D00EDC63283DD006DCCF
:1039B00039286BD061281BD0622832D11BE06428E3
:1039C00036D065282DD136E06738062829D2DFE8C1
:1039D00000F03F42454F525E6E380D2821D2DFE89D
:1039E00000F05C66696C6F80838D90949EA1A4004A
:1039F000F0EE6B0A01E0F0EE680AB0EE6D0A01200D
:103A0000FFF7DCFEF0EE6B0AB0EE6C0A0220FFF767
:103A1000D5FEF0EE6B0A00BFB0EE4D0A0320FFF7B3
:103A2000CDFEA07838286FD0B1E0F0EE4C0AE4E784
:103A3000F0EE6B0A04E0F0EE680A01E0F0EE4C0AEA
:103A4000B0EE6D0A0120FFF7B9FEF0EE680ADBE781
:103A5000F0EE6B0A04E0F0EE680A01E0F0EE4C0ACA
:103A6000B0EE6D0A0120FFF7A9FEF0EE4C0ACBE79D
:103A7000F0EE6B0A01E0F0EE680AB0EE6D0A01208C
:103A8000FFF79CFEF0EE6B0A23E003E050E0F0EE5F
:103A90004C0AF2E7F0EE6B0A01E0F0EE680AB0EED5
:103AA0006D0A0120FFF78AFEF0EE680A11E0F0EEE1
:103AB0004C0AF4E7F0EE6B0A04E0F0EE680A01E06D
:103AC000F0EE4C0AB0EE6D0A0120FFF777FEF0EE43
:103AD0004C0AB0EE6C0A0220FFF770FEF0EE680AA6
:103AE0009AE7F0EE6B0A01E0F0EE680AB0EE6D0ABC
:103AF0000120FFF763FEF0EE6B0A22E0F0EE4C0AC5
:103B0000F4E7F0EE6B0A02E023E0F0EE680AB0EEB4
:103B10006D0A0120FFF752FEF0EE680A11E0F0EEA8
:103B20004C0AF4E7F0EE6B0A04E0F0EE680A01E0FC
:103B3000F0EE4C0AB0EE6D0A0120FFF73FFEF0EE0A
:103B40004C0AB0EE6C0A0220FFF738FEF0EE4C0A89
:103B500062E7002241465046FDF792FD0022102107
:103B60004846FDF78DFD002280215846FDF788FD6F
:103B7000002220214846FDF783FD002241464846A9
:103B8000FDF77EFD002240214846FDF779FD4FF408
:103B9000FA70FDF73BFC8FE600000020FC010020DE
:103BA00064010020300000203C00002033335340EB
:103BB0000000803914AE47E17AA45A40B81E85EB64
:103BC00051B83340000048420000C842000016438C
:103BD0000004004800080048414443323A2564008C
:103BE000596F7520696E7075742069733A2563206A
:103BF0000D0A000002030405060708090A0B0C0D54
:103C00000E0F10100102030405060708090A0B0C29
:103C10000D0E0F1000000000000000000102030460
:103C20000607080900000000010203044C3C0008DC
:103C30000000002024000000C8350008703C000887
:103C400024000020E4060000D83500080000000031
:103C50000000000000000000000000000100000063
:103C6000100000000000000000127A0000000000B8
:040000050800019559
:00000001FF
